{
  "_format": "hh-sol-artifact-1",
  "contractName": "HeavySuit",
  "sourceName": "contracts/HeavySuit.sol",
  "abi": [
    {
      "inputs": [
        {
          "internalType": "string",
          "name": "baseTokenURI",
          "type": "string"
        }
      ],
      "stateMutability": "nonpayable",
      "type": "constructor"
    },
    {
      "anonymous": false,
      "inputs": [
        {
          "indexed": true,
          "internalType": "address",
          "name": "owner",
          "type": "address"
        },
        {
          "indexed": true,
          "internalType": "address",
          "name": "approved",
          "type": "address"
        },
        {
          "indexed": true,
          "internalType": "uint256",
          "name": "tokenId",
          "type": "uint256"
        }
      ],
      "name": "Approval",
      "type": "event"
    },
    {
      "anonymous": false,
      "inputs": [
        {
          "indexed": true,
          "internalType": "address",
          "name": "owner",
          "type": "address"
        },
        {
          "indexed": true,
          "internalType": "address",
          "name": "operator",
          "type": "address"
        },
        {
          "indexed": false,
          "internalType": "bool",
          "name": "approved",
          "type": "bool"
        }
      ],
      "name": "ApprovalForAll",
      "type": "event"
    },
    {
      "anonymous": false,
      "inputs": [
        {
          "indexed": true,
          "internalType": "address",
          "name": "pilot",
          "type": "address"
        },
        {
          "indexed": false,
          "internalType": "uint256",
          "name": "weiAmount",
          "type": "uint256"
        }
      ],
      "name": "OrderCancelled",
      "type": "event"
    },
    {
      "anonymous": false,
      "inputs": [
        {
          "indexed": true,
          "internalType": "address",
          "name": "pilot",
          "type": "address"
        },
        {
          "indexed": false,
          "internalType": "uint256",
          "name": "weiAmount",
          "type": "uint256"
        }
      ],
      "name": "OrderPlaced",
      "type": "event"
    },
    {
      "anonymous": false,
      "inputs": [
        {
          "indexed": false,
          "internalType": "address",
          "name": "account",
          "type": "address"
        }
      ],
      "name": "Paused",
      "type": "event"
    },
    {
      "anonymous": false,
      "inputs": [
        {
          "indexed": true,
          "internalType": "bytes32",
          "name": "role",
          "type": "bytes32"
        },
        {
          "indexed": true,
          "internalType": "bytes32",
          "name": "previousAdminRole",
          "type": "bytes32"
        },
        {
          "indexed": true,
          "internalType": "bytes32",
          "name": "newAdminRole",
          "type": "bytes32"
        }
      ],
      "name": "RoleAdminChanged",
      "type": "event"
    },
    {
      "anonymous": false,
      "inputs": [
        {
          "indexed": true,
          "internalType": "bytes32",
          "name": "role",
          "type": "bytes32"
        },
        {
          "indexed": true,
          "internalType": "address",
          "name": "account",
          "type": "address"
        },
        {
          "indexed": true,
          "internalType": "address",
          "name": "sender",
          "type": "address"
        }
      ],
      "name": "RoleGranted",
      "type": "event"
    },
    {
      "anonymous": false,
      "inputs": [
        {
          "indexed": true,
          "internalType": "bytes32",
          "name": "role",
          "type": "bytes32"
        },
        {
          "indexed": true,
          "internalType": "address",
          "name": "account",
          "type": "address"
        },
        {
          "indexed": true,
          "internalType": "address",
          "name": "sender",
          "type": "address"
        }
      ],
      "name": "RoleRevoked",
      "type": "event"
    },
    {
      "anonymous": false,
      "inputs": [
        {
          "indexed": true,
          "internalType": "uint256",
          "name": "tokenId",
          "type": "uint256"
        }
      ],
      "name": "SuitDestroyed",
      "type": "event"
    },
    {
      "anonymous": false,
      "inputs": [
        {
          "indexed": true,
          "internalType": "address",
          "name": "pilot",
          "type": "address"
        },
        {
          "indexed": true,
          "internalType": "uint256",
          "name": "tokenId",
          "type": "uint256"
        }
      ],
      "name": "SuitManufactured",
      "type": "event"
    },
    {
      "anonymous": false,
      "inputs": [
        {
          "indexed": true,
          "internalType": "uint256",
          "name": "tokenId",
          "type": "uint256"
        }
      ],
      "name": "SuitModified",
      "type": "event"
    },
    {
      "anonymous": false,
      "inputs": [
        {
          "indexed": true,
          "internalType": "address",
          "name": "from",
          "type": "address"
        },
        {
          "indexed": true,
          "internalType": "address",
          "name": "to",
          "type": "address"
        },
        {
          "indexed": true,
          "internalType": "uint256",
          "name": "tokenId",
          "type": "uint256"
        }
      ],
      "name": "Transfer",
      "type": "event"
    },
    {
      "anonymous": false,
      "inputs": [
        {
          "indexed": false,
          "internalType": "address",
          "name": "account",
          "type": "address"
        }
      ],
      "name": "Unpaused",
      "type": "event"
    },
    {
      "inputs": [],
      "name": "DEFAULT_ADMIN_ROLE",
      "outputs": [
        {
          "internalType": "bytes32",
          "name": "",
          "type": "bytes32"
        }
      ],
      "stateMutability": "view",
      "type": "function"
    },
    {
      "inputs": [],
      "name": "MANUFACTURER_ROLE",
      "outputs": [
        {
          "internalType": "bytes32",
          "name": "",
          "type": "bytes32"
        }
      ],
      "stateMutability": "view",
      "type": "function"
    },
    {
      "inputs": [],
      "name": "MECHANIC_ROLE",
      "outputs": [
        {
          "internalType": "bytes32",
          "name": "",
          "type": "bytes32"
        }
      ],
      "stateMutability": "view",
      "type": "function"
    },
    {
      "inputs": [],
      "name": "PAUSER_ROLE",
      "outputs": [
        {
          "internalType": "bytes32",
          "name": "",
          "type": "bytes32"
        }
      ],
      "stateMutability": "view",
      "type": "function"
    },
    {
      "inputs": [
        {
          "internalType": "address",
          "name": "to",
          "type": "address"
        },
        {
          "internalType": "uint256",
          "name": "tokenId",
          "type": "uint256"
        }
      ],
      "name": "approve",
      "outputs": [],
      "stateMutability": "nonpayable",
      "type": "function"
    },
    {
      "inputs": [
        {
          "internalType": "address",
          "name": "owner",
          "type": "address"
        }
      ],
      "name": "balanceOf",
      "outputs": [
        {
          "internalType": "uint256",
          "name": "",
          "type": "uint256"
        }
      ],
      "stateMutability": "view",
      "type": "function"
    },
    {
      "inputs": [],
      "name": "cancelOrder",
      "outputs": [],
      "stateMutability": "nonpayable",
      "type": "function"
    },
    {
      "inputs": [
        {
          "internalType": "address",
          "name": "pilot",
          "type": "address"
        }
      ],
      "name": "depositOf",
      "outputs": [
        {
          "internalType": "uint256",
          "name": "",
          "type": "uint256"
        }
      ],
      "stateMutability": "view",
      "type": "function"
    },
    {
      "inputs": [
        {
          "internalType": "uint256",
          "name": "tokenId",
          "type": "uint256"
        }
      ],
      "name": "getApproved",
      "outputs": [
        {
          "internalType": "address",
          "name": "",
          "type": "address"
        }
      ],
      "stateMutability": "view",
      "type": "function"
    },
    {
      "inputs": [
        {
          "internalType": "bytes32",
          "name": "role",
          "type": "bytes32"
        }
      ],
      "name": "getRoleAdmin",
      "outputs": [
        {
          "internalType": "bytes32",
          "name": "",
          "type": "bytes32"
        }
      ],
      "stateMutability": "view",
      "type": "function"
    },
    {
      "inputs": [
        {
          "internalType": "bytes32",
          "name": "role",
          "type": "bytes32"
        },
        {
          "internalType": "uint256",
          "name": "index",
          "type": "uint256"
        }
      ],
      "name": "getRoleMember",
      "outputs": [
        {
          "internalType": "address",
          "name": "",
          "type": "address"
        }
      ],
      "stateMutability": "view",
      "type": "function"
    },
    {
      "inputs": [
        {
          "internalType": "bytes32",
          "name": "role",
          "type": "bytes32"
        }
      ],
      "name": "getRoleMemberCount",
      "outputs": [
        {
          "internalType": "uint256",
          "name": "",
          "type": "uint256"
        }
      ],
      "stateMutability": "view",
      "type": "function"
    },
    {
      "inputs": [
        {
          "internalType": "bytes32",
          "name": "role",
          "type": "bytes32"
        },
        {
          "internalType": "address",
          "name": "account",
          "type": "address"
        }
      ],
      "name": "grantRole",
      "outputs": [],
      "stateMutability": "nonpayable",
      "type": "function"
    },
    {
      "inputs": [
        {
          "internalType": "bytes32",
          "name": "role",
          "type": "bytes32"
        },
        {
          "internalType": "address",
          "name": "account",
          "type": "address"
        }
      ],
      "name": "hasRole",
      "outputs": [
        {
          "internalType": "bool",
          "name": "",
          "type": "bool"
        }
      ],
      "stateMutability": "view",
      "type": "function"
    },
    {
      "inputs": [
        {
          "internalType": "address",
          "name": "owner",
          "type": "address"
        },
        {
          "internalType": "address",
          "name": "operator",
          "type": "address"
        }
      ],
      "name": "isApprovedForAll",
      "outputs": [
        {
          "internalType": "bool",
          "name": "",
          "type": "bool"
        }
      ],
      "stateMutability": "view",
      "type": "function"
    },
    {
      "inputs": [
        {
          "internalType": "address",
          "name": "pilot",
          "type": "address"
        }
      ],
      "name": "manufacture",
      "outputs": [],
      "stateMutability": "nonpayable",
      "type": "function"
    },
    {
      "inputs": [
        {
          "internalType": "uint256",
          "name": "tokenId",
          "type": "uint256"
        },
        {
          "internalType": "string",
          "name": "newURI",
          "type": "string"
        }
      ],
      "name": "modify",
      "outputs": [],
      "stateMutability": "nonpayable",
      "type": "function"
    },
    {
      "inputs": [],
      "name": "name",
      "outputs": [
        {
          "internalType": "string",
          "name": "",
          "type": "string"
        }
      ],
      "stateMutability": "view",
      "type": "function"
    },
    {
      "inputs": [],
      "name": "orderFee",
      "outputs": [
        {
          "internalType": "uint256",
          "name": "",
          "type": "uint256"
        }
      ],
      "stateMutability": "view",
      "type": "function"
    },
    {
      "inputs": [
        {
          "internalType": "uint256",
          "name": "tokenId",
          "type": "uint256"
        }
      ],
      "name": "ownerOf",
      "outputs": [
        {
          "internalType": "address",
          "name": "",
          "type": "address"
        }
      ],
      "stateMutability": "view",
      "type": "function"
    },
    {
      "inputs": [],
      "name": "pause",
      "outputs": [],
      "stateMutability": "nonpayable",
      "type": "function"
    },
    {
      "inputs": [],
      "name": "paused",
      "outputs": [
        {
          "internalType": "bool",
          "name": "",
          "type": "bool"
        }
      ],
      "stateMutability": "view",
      "type": "function"
    },
    {
      "inputs": [],
      "name": "placeOrder",
      "outputs": [],
      "stateMutability": "payable",
      "type": "function"
    },
    {
      "inputs": [
        {
          "internalType": "bytes32",
          "name": "role",
          "type": "bytes32"
        },
        {
          "internalType": "address",
          "name": "account",
          "type": "address"
        }
      ],
      "name": "renounceRole",
      "outputs": [],
      "stateMutability": "nonpayable",
      "type": "function"
    },
    {
      "inputs": [
        {
          "internalType": "bytes32",
          "name": "role",
          "type": "bytes32"
        },
        {
          "internalType": "address",
          "name": "account",
          "type": "address"
        }
      ],
      "name": "revokeRole",
      "outputs": [],
      "stateMutability": "nonpayable",
      "type": "function"
    },
    {
      "inputs": [
        {
          "internalType": "address",
          "name": "from",
          "type": "address"
        },
        {
          "internalType": "address",
          "name": "to",
          "type": "address"
        },
        {
          "internalType": "uint256",
          "name": "tokenId",
          "type": "uint256"
        }
      ],
      "name": "safeTransferFrom",
      "outputs": [],
      "stateMutability": "nonpayable",
      "type": "function"
    },
    {
      "inputs": [
        {
          "internalType": "address",
          "name": "from",
          "type": "address"
        },
        {
          "internalType": "address",
          "name": "to",
          "type": "address"
        },
        {
          "internalType": "uint256",
          "name": "tokenId",
          "type": "uint256"
        },
        {
          "internalType": "bytes",
          "name": "_data",
          "type": "bytes"
        }
      ],
      "name": "safeTransferFrom",
      "outputs": [],
      "stateMutability": "nonpayable",
      "type": "function"
    },
    {
      "inputs": [
        {
          "internalType": "uint256",
          "name": "tokenId",
          "type": "uint256"
        }
      ],
      "name": "scavenge",
      "outputs": [],
      "stateMutability": "nonpayable",
      "type": "function"
    },
    {
      "inputs": [
        {
          "internalType": "address",
          "name": "operator",
          "type": "address"
        },
        {
          "internalType": "bool",
          "name": "approved",
          "type": "bool"
        }
      ],
      "name": "setApprovalForAll",
      "outputs": [],
      "stateMutability": "nonpayable",
      "type": "function"
    },
    {
      "inputs": [
        {
          "internalType": "uint256",
          "name": "fee",
          "type": "uint256"
        }
      ],
      "name": "setOrderFee",
      "outputs": [],
      "stateMutability": "nonpayable",
      "type": "function"
    },
    {
      "inputs": [
        {
          "internalType": "bytes4",
          "name": "interfaceId",
          "type": "bytes4"
        }
      ],
      "name": "supportsInterface",
      "outputs": [
        {
          "internalType": "bool",
          "name": "",
          "type": "bool"
        }
      ],
      "stateMutability": "view",
      "type": "function"
    },
    {
      "inputs": [],
      "name": "symbol",
      "outputs": [
        {
          "internalType": "string",
          "name": "",
          "type": "string"
        }
      ],
      "stateMutability": "view",
      "type": "function"
    },
    {
      "inputs": [
        {
          "internalType": "uint256",
          "name": "index",
          "type": "uint256"
        }
      ],
      "name": "tokenByIndex",
      "outputs": [
        {
          "internalType": "uint256",
          "name": "",
          "type": "uint256"
        }
      ],
      "stateMutability": "view",
      "type": "function"
    },
    {
      "inputs": [
        {
          "internalType": "address",
          "name": "owner",
          "type": "address"
        },
        {
          "internalType": "uint256",
          "name": "index",
          "type": "uint256"
        }
      ],
      "name": "tokenOfOwnerByIndex",
      "outputs": [
        {
          "internalType": "uint256",
          "name": "",
          "type": "uint256"
        }
      ],
      "stateMutability": "view",
      "type": "function"
    },
    {
      "inputs": [
        {
          "internalType": "uint256",
          "name": "tokenId",
          "type": "uint256"
        }
      ],
      "name": "tokenURI",
      "outputs": [
        {
          "internalType": "string",
          "name": "",
          "type": "string"
        }
      ],
      "stateMutability": "view",
      "type": "function"
    },
    {
      "inputs": [],
      "name": "totalSupply",
      "outputs": [
        {
          "internalType": "uint256",
          "name": "",
          "type": "uint256"
        }
      ],
      "stateMutability": "view",
      "type": "function"
    },
    {
      "inputs": [
        {
          "internalType": "address",
          "name": "from",
          "type": "address"
        },
        {
          "internalType": "address",
          "name": "to",
          "type": "address"
        },
        {
          "internalType": "uint256",
          "name": "tokenId",
          "type": "uint256"
        }
      ],
      "name": "transferFrom",
      "outputs": [],
      "stateMutability": "nonpayable",
      "type": "function"
    },
    {
      "inputs": [],
      "name": "unpause",
      "outputs": [],
      "stateMutability": "nonpayable",
      "type": "function"
    }
  ],
  "bytecode": "0x608060405267058d15e1762800006011553480156200001d57600080fd5b5060405162005c7238038062005c728339818101604052810190620000439190620005bd565b6040518060400160405280600981526020017f48656176795375697400000000000000000000000000000000000000000000008152506040518060400160405280600481526020017f48565354000000000000000000000000000000000000000000000000000000008152508160029080519060200190620000c79291906200049b565b508060039080519060200190620000e09291906200049b565b5050506000600d60006101000a81548160ff0219169083151502179055508060109080519060200190620001169291906200049b565b506200013b6000801b6200012f6200020560201b60201c565b6200020d60201b60201c565b6200017c7feefb95e842a3287179d933b4460be539a1d5af11aa8b325bb45c5c8dc92de4ed620001706200020560201b60201c565b6200020d60201b60201c565b620001bd7f1ac05cded273d7237dfbbd305bbd7cd47a33eb42bf9f7d2307b7784016772fc0620001b16200020560201b60201c565b6200020d60201b60201c565b620001fe7f65d7a28e3265b37a6474929f336521b332c1681b933f6cb9f3376673440d862a620001f26200020560201b60201c565b6200020d60201b60201c565b5062000772565b600033905090565b6200022482826200025560201b620017ee1760201c565b6200025081600160008581526020019081526020016000206200026b60201b620017fc1790919060201c565b505050565b620002678282620002a360201b60201c565b5050565b60006200029b836000018373ffffffffffffffffffffffffffffffffffffffff1660001b6200039460201b60201c565b905092915050565b620002b582826200040e60201b60201c565b6200039057600160008084815260200190815260200160002060000160008373ffffffffffffffffffffffffffffffffffffffff1673ffffffffffffffffffffffffffffffffffffffff16815260200190815260200160002060006101000a81548160ff021916908315150217905550620003356200020560201b60201c565b73ffffffffffffffffffffffffffffffffffffffff168173ffffffffffffffffffffffffffffffffffffffff16837f2f8788117e7eff1d82e926ec794901d17c78024a50270940304540a733656f0d60405160405180910390a45b5050565b6000620003a883836200047860201b60201c565b6200040357826000018290806001815401808255809150506001900390600052602060002001600090919091909150558260000180549050836001016000848152602001908152602001600020819055506001905062000408565b600090505b92915050565b600080600084815260200190815260200160002060000160008373ffffffffffffffffffffffffffffffffffffffff1673ffffffffffffffffffffffffffffffffffffffff16815260200190815260200160002060009054906101000a900460ff16905092915050565b600080836001016000848152602001908152602001600020541415905092915050565b828054620004a99062000697565b90600052602060002090601f016020900481019282620004cd576000855562000519565b82601f10620004e857805160ff191683800117855562000519565b8280016001018555821562000519579182015b8281111562000518578251825591602001919060010190620004fb565b5b5090506200052891906200052c565b5090565b5b80821115620005475760008160009055506001016200052d565b5090565b6000620005626200055c846200062b565b62000602565b9050828152602081018484840111156200057b57600080fd5b6200058884828562000661565b509392505050565b600082601f830112620005a257600080fd5b8151620005b48482602086016200054b565b91505092915050565b600060208284031215620005d057600080fd5b600082015167ffffffffffffffff811115620005eb57600080fd5b620005f98482850162000590565b91505092915050565b60006200060e62000621565b90506200061c8282620006cd565b919050565b6000604051905090565b600067ffffffffffffffff82111562000649576200064862000732565b5b620006548262000761565b9050602081019050919050565b60005b838110156200068157808201518184015260208101905062000664565b8381111562000691576000848401525b50505050565b60006002820490506001821680620006b057607f821691505b60208210811415620006c757620006c662000703565b5b50919050565b620006d88262000761565b810181811067ffffffffffffffff82111715620006fa57620006f962000732565b5b80604052505050565b7f4e487b7100000000000000000000000000000000000000000000000000000000600052602260045260246000fd5b7f4e487b7100000000000000000000000000000000000000000000000000000000600052604160045260246000fd5b6000601f19601f8301169050919050565b6154f080620007826000396000f3fe6080604052600436106102255760003560e01c80636a81654811610123578063a217fddf116100ab578063ca15c8731161006f578063ca15c87314610829578063d547741f14610866578063e63ab1e91461088f578063e985e9c5146108ba578063f5c609e0146108f757610225565b8063a217fddf14610746578063a22cb46514610771578063b88d4fde1461079a578063c014930f146107c3578063c87b56dd146107ec57610225565b80638456cb59116100f25780638456cb591461065f5780639010d07c1461067657806391d14854146106b357806395d89b41146106f0578063965288b01461071b57610225565b80636a816548146105b75780636b22d13b146105ce57806370a08231146105f957806376853c811461063657610225565b80632f2ff15d116101b1578063441d10e211610175578063441d10e2146104c05780634f6ccce7146104e95780635846a157146105265780635c975abb1461054f5780636352211e1461057a57610225565b80632f2ff15d146103f15780632f745c591461041a57806336568abe146104575780633f4ba83a1461048057806342842e0e1461049757610225565b80631392fb3e116101f85780631392fb3e146102f857806318160ddd1461032357806323b872dd1461034e57806323e3fbd514610377578063248a9ca3146103b457610225565b806301ffc9a71461022a57806306fdde0314610267578063081812fc14610292578063095ea7b3146102cf575b600080fd5b34801561023657600080fd5b50610251600480360381019061024c9190613e8c565b610901565b60405161025e91906144d3565b60405180910390f35b34801561027357600080fd5b5061027c610913565b6040516102899190614509565b60405180910390f35b34801561029e57600080fd5b506102b960048036038101906102b49190613ede565b6109a5565b6040516102c6919061446c565b60405180910390f35b3480156102db57600080fd5b506102f660048036038101906102f19190613daf565b610a2a565b005b34801561030457600080fd5b5061030d610b42565b60405161031a919061486b565b60405180910390f35b34801561032f57600080fd5b50610338610b48565b604051610345919061486b565b60405180910390f35b34801561035a57600080fd5b5061037560048036038101906103709190613ca9565b610b55565b005b34801561038357600080fd5b5061039e60048036038101906103999190613c44565b610bb5565b6040516103ab919061486b565b60405180910390f35b3480156103c057600080fd5b506103db60048036038101906103d69190613deb565b610bfe565b6040516103e891906144ee565b60405180910390f35b3480156103fd57600080fd5b5061041860048036038101906104139190613e14565b610c1d565b005b34801561042657600080fd5b50610441600480360381019061043c9190613daf565b610c51565b60405161044e919061486b565b60405180910390f35b34801561046357600080fd5b5061047e60048036038101906104799190613e14565b610cf6565b005b34801561048c57600080fd5b50610495610d2a565b005b3480156104a357600080fd5b506104be60048036038101906104b99190613ca9565b610d67565b005b3480156104cc57600080fd5b506104e760048036038101906104e29190613f07565b610d87565b005b3480156104f557600080fd5b50610510600480360381019061050b9190613ede565b610df5565b60405161051d919061486b565b60405180910390f35b34801561053257600080fd5b5061054d60048036038101906105489190613ede565b610e8c565b005b34801561055b57600080fd5b50610564610f4a565b60405161057191906144d3565b60405180910390f35b34801561058657600080fd5b506105a1600480360381019061059c9190613ede565b610f61565b6040516105ae919061446c565b60405180910390f35b3480156105c357600080fd5b506105cc611013565b005b3480156105da57600080fd5b506105e3611148565b6040516105f091906144ee565b60405180910390f35b34801561060557600080fd5b50610620600480360381019061061b9190613c44565b61116c565b60405161062d919061486b565b60405180910390f35b34801561064257600080fd5b5061065d60048036038101906106589190613c44565b611224565b005b34801561066b57600080fd5b506106746113a3565b005b34801561068257600080fd5b5061069d60048036038101906106989190613e50565b6113e0565b6040516106aa919061446c565b60405180910390f35b3480156106bf57600080fd5b506106da60048036038101906106d59190613e14565b61140f565b6040516106e791906144d3565b60405180910390f35b3480156106fc57600080fd5b50610705611479565b6040516107129190614509565b60405180910390f35b34801561072757600080fd5b5061073061150b565b60405161073d91906144ee565b60405180910390f35b34801561075257600080fd5b5061075b61152f565b60405161076891906144ee565b60405180910390f35b34801561077d57600080fd5b5061079860048036038101906107939190613d73565b611536565b005b3480156107a657600080fd5b506107c160048036038101906107bc9190613cf8565b61154c565b005b3480156107cf57600080fd5b506107ea60048036038101906107e59190613ede565b6115ae565b005b3480156107f857600080fd5b50610813600480360381019061080e9190613ede565b6115ce565b6040516108209190614509565b60405180910390f35b34801561083557600080fd5b50610850600480360381019061084b9190613deb565b6115e0565b60405161085d919061486b565b60405180910390f35b34801561087257600080fd5b5061088d60048036038101906108889190613e14565b611604565b005b34801561089b57600080fd5b506108a4611638565b6040516108b191906144ee565b60405180910390f35b3480156108c657600080fd5b506108e160048036038101906108dc9190613c6d565b61165c565b6040516108ee91906144d3565b60405180910390f35b6108ff6116f0565b005b600061090c8261182c565b9050919050565b60606002805461092290614b4f565b80601f016020809104026020016040519081016040528092919081815260200182805461094e90614b4f565b801561099b5780601f106109705761010080835404028352916020019161099b565b820191906000526020600020905b81548152906001019060200180831161097e57829003601f168201915b5050505050905090565b60006109b0826118a6565b6109ef576040517f08c379a00000000000000000000000000000000000000000000000000000000081526004016109e69061476b565b60405180910390fd5b6006600083815260200190815260200160002060009054906101000a900473ffffffffffffffffffffffffffffffffffffffff169050919050565b6000610a3582610f61565b90508073ffffffffffffffffffffffffffffffffffffffff168373ffffffffffffffffffffffffffffffffffffffff161415610aa6576040517f08c379a0000000000000000000000000000000000000000000000000000000008152600401610a9d906147eb565b60405180910390fd5b8073ffffffffffffffffffffffffffffffffffffffff16610ac5611912565b73ffffffffffffffffffffffffffffffffffffffff161480610af45750610af381610aee611912565b61165c565b5b610b33576040517f08c379a0000000000000000000000000000000000000000000000000000000008152600401610b2a9061468b565b60405180910390fd5b610b3d838361191a565b505050565b60115481565b6000600b80549050905090565b610b66610b60611912565b826119d3565b610ba5576040517f08c379a0000000000000000000000000000000000000000000000000000000008152600401610b9c9061480b565b60405180910390fd5b610bb0838383611ab1565b505050565b6000600f60008373ffffffffffffffffffffffffffffffffffffffff1673ffffffffffffffffffffffffffffffffffffffff168152602001908152602001600020549050919050565b6000806000838152602001908152602001600020600101549050919050565b610c278282611d0d565b610c4c81600160008581526020019081526020016000206117fc90919063ffffffff16565b505050565b6000610c5c8361116c565b8210610c9d576040517f08c379a0000000000000000000000000000000000000000000000000000000008152600401610c949061458b565b60405180910390fd5b600960008473ffffffffffffffffffffffffffffffffffffffff1673ffffffffffffffffffffffffffffffffffffffff168152602001908152602001600020600083815260200190815260200160002054905092915050565b610d008282611d36565b610d258160016000858152602001908152602001600020611db990919063ffffffff16565b505050565b7f65d7a28e3265b37a6474929f336521b332c1681b933f6cb9f3376673440d862a610d5c81610d57611912565b611de9565b610d64611e86565b50565b610d828383836040518060200160405280600081525061154c565b505050565b7f1ac05cded273d7237dfbbd305bbd7cd47a33eb42bf9f7d2307b7784016772fc0610db981610db4611912565b611de9565b610dc38383611f28565b827f3150628b8fb232196578bf0ecfbc94784a998f0be28091a002702ed9420107db60405160405180910390a2505050565b6000610dff610b48565b8210610e40576040517f08c379a0000000000000000000000000000000000000000000000000000000008152600401610e379061482b565b60405180910390fd5b600b8281548110610e7a577f4e487b7100000000000000000000000000000000000000000000000000000000600052603260045260246000fd5b90600052602060002001549050919050565b7f1ac05cded273d7237dfbbd305bbd7cd47a33eb42bf9f7d2307b7784016772fc0610ebe81610eb9611912565b611de9565b81610ed0610eca611912565b826119d3565b610f0f576040517f08c379a0000000000000000000000000000000000000000000000000000000008152600401610f069061464b565b60405180910390fd5b610f1883611f9c565b827f7dfe73921acbd8dc49b0b0b5d33e67e9641568717cbc5a353504b9665efe5e5860405160405180910390a2505050565b6000600d60009054906101000a900460ff16905090565b6000806004600084815260200190815260200160002060009054906101000a900473ffffffffffffffffffffffffffffffffffffffff169050600073ffffffffffffffffffffffffffffffffffffffff168173ffffffffffffffffffffffffffffffffffffffff16141561100a576040517f08c379a0000000000000000000000000000000000000000000000000000000008152600401611001906146cb565b60405180910390fd5b80915050919050565b600061101d611912565b90506000600f600061102d611912565b73ffffffffffffffffffffffffffffffffffffffff1673ffffffffffffffffffffffffffffffffffffffff1681526020019081526020016000205490508173ffffffffffffffffffffffffffffffffffffffff166108fc829081150290604051600060405180830381858888f193505050501580156110b0573d6000803e3d6000fd5b506000600f60008473ffffffffffffffffffffffffffffffffffffffff1673ffffffffffffffffffffffffffffffffffffffff168152602001908152602001600020819055508173ffffffffffffffffffffffffffffffffffffffff167fdd003742fb214507783ce004fe55f5ac14f89c6de4a7cd7487e47eb091c622658260405161113c919061486b565b60405180910390a25050565b7f1ac05cded273d7237dfbbd305bbd7cd47a33eb42bf9f7d2307b7784016772fc081565b60008073ffffffffffffffffffffffffffffffffffffffff168273ffffffffffffffffffffffffffffffffffffffff1614156111dd576040517f08c379a00000000000000000000000000000000000000000000000000000000081526004016111d4906146ab565b60405180910390fd5b600560008373ffffffffffffffffffffffffffffffffffffffff1673ffffffffffffffffffffffffffffffffffffffff168152602001908152602001600020549050919050565b7feefb95e842a3287179d933b4460be539a1d5af11aa8b325bb45c5c8dc92de4ed61125681611251611912565b611de9565b6000611262600e611fa8565b90506000600f60008573ffffffffffffffffffffffffffffffffffffffff1673ffffffffffffffffffffffffffffffffffffffff1681526020019081526020016000205490506011548110156112ed576040517f08c379a00000000000000000000000000000000000000000000000000000000081526004016112e49061478b565b60405180910390fd5b601154600f60008673ffffffffffffffffffffffffffffffffffffffff1673ffffffffffffffffffffffffffffffffffffffff168152602001908152602001600020600082825461133e9190614a31565b9250508190555061134f8483611fb6565b611359600e612184565b818473ffffffffffffffffffffffffffffffffffffffff167fc581ff8a49ed45590f09c7ebed60720d20fef861adfd10e7d4efcd33c2f1c43160405160405180910390a350505050565b7f65d7a28e3265b37a6474929f336521b332c1681b933f6cb9f3376673440d862a6113d5816113d0611912565b611de9565b6113dd61219a565b50565b6000611407826001600086815260200190815260200160002061223d90919063ffffffff16565b905092915050565b600080600084815260200190815260200160002060000160008373ffffffffffffffffffffffffffffffffffffffff1673ffffffffffffffffffffffffffffffffffffffff16815260200190815260200160002060009054906101000a900460ff16905092915050565b60606003805461148890614b4f565b80601f01602080910402602001604051908101604052809291908181526020018280546114b490614b4f565b80156115015780601f106114d657610100808354040283529160200191611501565b820191906000526020600020905b8154815290600101906020018083116114e457829003601f168201915b5050505050905090565b7feefb95e842a3287179d933b4460be539a1d5af11aa8b325bb45c5c8dc92de4ed81565b6000801b81565b611548611541611912565b8383612257565b5050565b61155d611557611912565b836119d3565b61159c576040517f08c379a00000000000000000000000000000000000000000000000000000000081526004016115939061480b565b60405180910390fd5b6115a8848484846123c4565b50505050565b6000801b6115c3816115be611912565b611de9565b816011819055505050565b60606115d982612420565b9050919050565b60006115fd60016000848152602001908152602001600020612572565b9050919050565b61160e8282612587565b6116338160016000858152602001908152602001600020611db990919063ffffffff16565b505050565b7f65d7a28e3265b37a6474929f336521b332c1681b933f6cb9f3376673440d862a81565b6000600760008473ffffffffffffffffffffffffffffffffffffffff1673ffffffffffffffffffffffffffffffffffffffff16815260200190815260200160002060008373ffffffffffffffffffffffffffffffffffffffff1673ffffffffffffffffffffffffffffffffffffffff16815260200190815260200160002060009054906101000a900460ff16905092915050565b60006116fa611912565b90506000349050601154811015611746576040517f08c379a000000000000000000000000000000000000000000000000000000000815260040161173d9061472b565b60405180910390fd5b80600f60008473ffffffffffffffffffffffffffffffffffffffff1673ffffffffffffffffffffffffffffffffffffffff16815260200190815260200160002060008282546117959190614950565b925050819055508173ffffffffffffffffffffffffffffffffffffffff167ff6f21bda482268b6851cb7d134c9ef42acd2e610afc2ce82688cd2799adacca3826040516117e2919061486b565b60405180910390a25050565b6117f882826125b0565b5050565b6000611824836000018373ffffffffffffffffffffffffffffffffffffffff1660001b612690565b905092915050565b60007f780e9d63000000000000000000000000000000000000000000000000000000007bffffffffffffffffffffffffffffffffffffffffffffffffffffffff1916827bffffffffffffffffffffffffffffffffffffffffffffffffffffffff1916148061189f575061189e82612700565b5b9050919050565b60008073ffffffffffffffffffffffffffffffffffffffff166004600084815260200190815260200160002060009054906101000a900473ffffffffffffffffffffffffffffffffffffffff1673ffffffffffffffffffffffffffffffffffffffff1614159050919050565b600033905090565b816006600083815260200190815260200160002060006101000a81548173ffffffffffffffffffffffffffffffffffffffff021916908373ffffffffffffffffffffffffffffffffffffffff160217905550808273ffffffffffffffffffffffffffffffffffffffff1661198d83610f61565b73ffffffffffffffffffffffffffffffffffffffff167f8c5be1e5ebec7d5bd14f71427d1e84f3dd0314c0f7b2291e5b200ac8c7c3b92560405160405180910390a45050565b60006119de826118a6565b611a1d576040517f08c379a0000000000000000000000000000000000000000000000000000000008152600401611a149061462b565b60405180910390fd5b6000611a2883610f61565b90508073ffffffffffffffffffffffffffffffffffffffff168473ffffffffffffffffffffffffffffffffffffffff161480611a9757508373ffffffffffffffffffffffffffffffffffffffff16611a7f846109a5565b73ffffffffffffffffffffffffffffffffffffffff16145b80611aa85750611aa7818561165c565b5b91505092915050565b8273ffffffffffffffffffffffffffffffffffffffff16611ad182610f61565b73ffffffffffffffffffffffffffffffffffffffff1614611b27576040517f08c379a0000000000000000000000000000000000000000000000000000000008152600401611b1e906147ab565b60405180910390fd5b600073ffffffffffffffffffffffffffffffffffffffff168273ffffffffffffffffffffffffffffffffffffffff161415611b97576040517f08c379a0000000000000000000000000000000000000000000000000000000008152600401611b8e906145eb565b60405180910390fd5b611ba28383836127e2565b611bad60008261191a565b6001600560008573ffffffffffffffffffffffffffffffffffffffff1673ffffffffffffffffffffffffffffffffffffffff1681526020019081526020016000206000828254611bfd9190614a31565b925050819055506001600560008473ffffffffffffffffffffffffffffffffffffffff1673ffffffffffffffffffffffffffffffffffffffff1681526020019081526020016000206000828254611c549190614950565b92505081905550816004600083815260200190815260200160002060006101000a81548173ffffffffffffffffffffffffffffffffffffffff021916908373ffffffffffffffffffffffffffffffffffffffff160217905550808273ffffffffffffffffffffffffffffffffffffffff168473ffffffffffffffffffffffffffffffffffffffff167fddf252ad1be2c89b69c2b068fc378daa952ba7f163c4a11628f55a4df523b3ef60405160405180910390a4505050565b611d1682610bfe565b611d2781611d22611912565b611de9565b611d3183836125b0565b505050565b611d3e611912565b73ffffffffffffffffffffffffffffffffffffffff168173ffffffffffffffffffffffffffffffffffffffff1614611dab576040517f08c379a0000000000000000000000000000000000000000000000000000000008152600401611da29061484b565b60405180910390fd5b611db582826127f2565b5050565b6000611de1836000018373ffffffffffffffffffffffffffffffffffffffff1660001b6128d3565b905092915050565b611df3828261140f565b611e8257611e188173ffffffffffffffffffffffffffffffffffffffff166014612a59565b611e268360001c6020612a59565b604051602001611e37929190614432565b6040516020818303038152906040526040517f08c379a0000000000000000000000000000000000000000000000000000000008152600401611e799190614509565b60405180910390fd5b5050565b611e8e610f4a565b611ecd576040517f08c379a0000000000000000000000000000000000000000000000000000000008152600401611ec49061456b565b60405180910390fd5b6000600d60006101000a81548160ff0219169083151502179055507f5db9ee0a495bf2e6ff9c91a7834c1ba4fdd244a5e8aa4e537bd38aeae4b073aa611f11611912565b604051611f1e919061446c565b60405180910390a1565b611f31826118a6565b611f70576040517f08c379a0000000000000000000000000000000000000000000000000000000008152600401611f67906146eb565b60405180910390fd5b80600860008481526020019081526020016000209080519060200190611f97929190613a13565b505050565b611fa581612d53565b50565b600081600001549050919050565b600073ffffffffffffffffffffffffffffffffffffffff168273ffffffffffffffffffffffffffffffffffffffff161415612026576040517f08c379a000000000000000000000000000000000000000000000000000000000815260040161201d9061470b565b60405180910390fd5b61202f816118a6565b1561206f576040517f08c379a0000000000000000000000000000000000000000000000000000000008152600401612066906145cb565b60405180910390fd5b61207b600083836127e2565b6001600560008473ffffffffffffffffffffffffffffffffffffffff1673ffffffffffffffffffffffffffffffffffffffff16815260200190815260200160002060008282546120cb9190614950565b92505081905550816004600083815260200190815260200160002060006101000a81548173ffffffffffffffffffffffffffffffffffffffff021916908373ffffffffffffffffffffffffffffffffffffffff160217905550808273ffffffffffffffffffffffffffffffffffffffff16600073ffffffffffffffffffffffffffffffffffffffff167fddf252ad1be2c89b69c2b068fc378daa952ba7f163c4a11628f55a4df523b3ef60405160405180910390a45050565b6001816000016000828254019250508190555050565b6121a2610f4a565b156121e2576040517f08c379a00000000000000000000000000000000000000000000000000000000081526004016121d99061466b565b60405180910390fd5b6001600d60006101000a81548160ff0219169083151502179055507f62e78cea01bee320cd4e420270b5ea74000d11b0c9f74754ebdbfc544b05a258612226611912565b604051612233919061446c565b60405180910390a1565b600061224c8360000183612da6565b60001c905092915050565b8173ffffffffffffffffffffffffffffffffffffffff168373ffffffffffffffffffffffffffffffffffffffff1614156122c6576040517f08c379a00000000000000000000000000000000000000000000000000000000081526004016122bd9061460b565b60405180910390fd5b80600760008573ffffffffffffffffffffffffffffffffffffffff1673ffffffffffffffffffffffffffffffffffffffff16815260200190815260200160002060008473ffffffffffffffffffffffffffffffffffffffff1673ffffffffffffffffffffffffffffffffffffffff16815260200190815260200160002060006101000a81548160ff0219169083151502179055508173ffffffffffffffffffffffffffffffffffffffff168373ffffffffffffffffffffffffffffffffffffffff167f17307eab39ab6107e8899845ad3d59bd9653f200f220920489ca2b5937696c31836040516123b791906144d3565b60405180910390a3505050565b6123cf848484611ab1565b6123db84848484612df7565b61241a576040517f08c379a0000000000000000000000000000000000000000000000000000000008152600401612411906145ab565b60405180910390fd5b50505050565b606061242b826118a6565b61246a576040517f08c379a00000000000000000000000000000000000000000000000000000000081526004016124619061474b565b60405180910390fd5b600060086000848152602001908152602001600020805461248a90614b4f565b80601f01602080910402602001604051908101604052809291908181526020018280546124b690614b4f565b80156125035780601f106124d857610100808354040283529160200191612503565b820191906000526020600020905b8154815290600101906020018083116124e657829003601f168201915b505050505090506000612514612f8e565b905060008151141561252a57819250505061256d565b60008251111561255f57808260405160200161254792919061440e565b6040516020818303038152906040529250505061256d565b61256884613020565b925050505b919050565b6000612580826000016130c7565b9050919050565b61259082610bfe565b6125a18161259c611912565b611de9565b6125ab83836127f2565b505050565b6125ba828261140f565b61268c57600160008084815260200190815260200160002060000160008373ffffffffffffffffffffffffffffffffffffffff1673ffffffffffffffffffffffffffffffffffffffff16815260200190815260200160002060006101000a81548160ff021916908315150217905550612631611912565b73ffffffffffffffffffffffffffffffffffffffff168173ffffffffffffffffffffffffffffffffffffffff16837f2f8788117e7eff1d82e926ec794901d17c78024a50270940304540a733656f0d60405160405180910390a45b5050565b600061269c83836130d8565b6126f55782600001829080600181540180825580915050600190039060005260206000200160009091909190915055826000018054905083600101600084815260200190815260200160002081905550600190506126fa565b600090505b92915050565b60007f80ac58cd000000000000000000000000000000000000000000000000000000007bffffffffffffffffffffffffffffffffffffffffffffffffffffffff1916827bffffffffffffffffffffffffffffffffffffffffffffffffffffffff191614806127cb57507f5b5e139f000000000000000000000000000000000000000000000000000000007bffffffffffffffffffffffffffffffffffffffffffffffffffffffff1916827bffffffffffffffffffffffffffffffffffffffffffffffffffffffff1916145b806127db57506127da826130fb565b5b9050919050565b6127ed838383613175565b505050565b6127fc828261140f565b156128cf57600080600084815260200190815260200160002060000160008373ffffffffffffffffffffffffffffffffffffffff1673ffffffffffffffffffffffffffffffffffffffff16815260200190815260200160002060006101000a81548160ff021916908315150217905550612874611912565b73ffffffffffffffffffffffffffffffffffffffff168173ffffffffffffffffffffffffffffffffffffffff16837ff6391f5c32d9c69d2a47ea670b442974b53935d1edc7fd64eb21e047a839171b60405160405180910390a45b5050565b60008083600101600084815260200190815260200160002054905060008114612a4d5760006001826129059190614a31565b905060006001866000018054905061291d9190614a31565b90508181146129d8576000866000018281548110612964577f4e487b7100000000000000000000000000000000000000000000000000000000600052603260045260246000fd5b90600052602060002001549050808760000184815481106129ae577f4e487b7100000000000000000000000000000000000000000000000000000000600052603260045260246000fd5b90600052602060002001819055508387600101600083815260200190815260200160002081905550505b85600001805480612a12577f4e487b7100000000000000000000000000000000000000000000000000000000600052603160045260246000fd5b600190038181906000526020600020016000905590558560010160008681526020019081526020016000206000905560019350505050612a53565b60009150505b92915050565b606060006002836002612a6c91906149d7565b612a769190614950565b67ffffffffffffffff811115612ab5577f4e487b7100000000000000000000000000000000000000000000000000000000600052604160045260246000fd5b6040519080825280601f01601f191660200182016040528015612ae75781602001600182028036833780820191505090505b5090507f300000000000000000000000000000000000000000000000000000000000000081600081518110612b45577f4e487b7100000000000000000000000000000000000000000000000000000000600052603260045260246000fd5b60200101907effffffffffffffffffffffffffffffffffffffffffffffffffffffffffffff1916908160001a9053507f780000000000000000000000000000000000000000000000000000000000000081600181518110612bcf577f4e487b7100000000000000000000000000000000000000000000000000000000600052603260045260246000fd5b60200101907effffffffffffffffffffffffffffffffffffffffffffffffffffffffffffff1916908160001a90535060006001846002612c0f91906149d7565b612c199190614950565b90505b6001811115612d05577f3031323334353637383961626364656600000000000000000000000000000000600f861660108110612c81577f4e487b7100000000000000000000000000000000000000000000000000000000600052603260045260246000fd5b1a60f81b828281518110612cbe577f4e487b7100000000000000000000000000000000000000000000000000000000600052603260045260246000fd5b60200101907effffffffffffffffffffffffffffffffffffffffffffffffffffffffffffff1916908160001a905350600485901c945080612cfe90614b25565b9050612c1c565b5060008414612d49576040517f08c379a0000000000000000000000000000000000000000000000000000000008152600401612d409061452b565b60405180910390fd5b8091505092915050565b612d5c816131cd565b6000600860008381526020019081526020016000208054612d7c90614b4f565b905014612da357600860008281526020019081526020016000206000612da29190613a99565b5b50565b6000826000018281548110612de4577f4e487b7100000000000000000000000000000000000000000000000000000000600052603260045260246000fd5b9060005260206000200154905092915050565b6000612e188473ffffffffffffffffffffffffffffffffffffffff166132de565b15612f81578373ffffffffffffffffffffffffffffffffffffffff1663150b7a02612e41611912565b8786866040518563ffffffff1660e01b8152600401612e639493929190614487565b602060405180830381600087803b158015612e7d57600080fd5b505af1925050508015612eae57506040513d601f19601f82011682018060405250810190612eab9190613eb5565b60015b612f31573d8060008114612ede576040519150601f19603f3d011682016040523d82523d6000602084013e612ee3565b606091505b50600081511415612f29576040517f08c379a0000000000000000000000000000000000000000000000000000000008152600401612f20906145ab565b60405180910390fd5b805181602001fd5b63150b7a0260e01b7bffffffffffffffffffffffffffffffffffffffffffffffffffffffff1916817bffffffffffffffffffffffffffffffffffffffffffffffffffffffff191614915050612f86565b600190505b949350505050565b606060108054612f9d90614b4f565b80601f0160208091040260200160405190810160405280929190818152602001828054612fc990614b4f565b80156130165780601f10612feb57610100808354040283529160200191613016565b820191906000526020600020905b815481529060010190602001808311612ff957829003601f168201915b5050505050905090565b606061302b826118a6565b61306a576040517f08c379a0000000000000000000000000000000000000000000000000000000008152600401613061906147cb565b60405180910390fd5b6000613074612f8e565b9050600081511161309457604051806020016040528060008152506130bf565b8061309e846132f1565b6040516020016130af92919061440e565b6040516020818303038152906040525b915050919050565b600081600001805490509050919050565b600080836001016000848152602001908152602001600020541415905092915050565b60007f5a05180f000000000000000000000000000000000000000000000000000000007bffffffffffffffffffffffffffffffffffffffffffffffffffffffff1916827bffffffffffffffffffffffffffffffffffffffffffffffffffffffff1916148061316e575061316d8261349e565b5b9050919050565b613180838383613518565b613188610f4a565b156131c8576040517f08c379a00000000000000000000000000000000000000000000000000000000081526004016131bf9061454b565b60405180910390fd5b505050565b60006131d882610f61565b90506131e6816000846127e2565b6131f160008361191a565b6001600560008373ffffffffffffffffffffffffffffffffffffffff1673ffffffffffffffffffffffffffffffffffffffff16815260200190815260200160002060008282546132419190614a31565b925050819055506004600083815260200190815260200160002060006101000a81549073ffffffffffffffffffffffffffffffffffffffff021916905581600073ffffffffffffffffffffffffffffffffffffffff168273ffffffffffffffffffffffffffffffffffffffff167fddf252ad1be2c89b69c2b068fc378daa952ba7f163c4a11628f55a4df523b3ef60405160405180910390a45050565b600080823b905060008111915050919050565b60606000821415613339576040518060400160405280600181526020017f30000000000000000000000000000000000000000000000000000000000000008152509050613499565b600082905060005b6000821461336b57808061335490614bb2565b915050600a8261336491906149a6565b9150613341565b60008167ffffffffffffffff8111156133ad577f4e487b7100000000000000000000000000000000000000000000000000000000600052604160045260246000fd5b6040519080825280601f01601f1916602001820160405280156133df5781602001600182028036833780820191505090505b5090505b60008514613492576001826133f89190614a31565b9150600a856134079190614bfb565b60306134139190614950565b60f81b81838151811061344f577f4e487b7100000000000000000000000000000000000000000000000000000000600052603260045260246000fd5b60200101907effffffffffffffffffffffffffffffffffffffffffffffffffffffffffffff1916908160001a905350600a8561348b91906149a6565b94506133e3565b8093505050505b919050565b60007f7965db0b000000000000000000000000000000000000000000000000000000007bffffffffffffffffffffffffffffffffffffffffffffffffffffffff1916827bffffffffffffffffffffffffffffffffffffffffffffffffffffffff1916148061351157506135108261362c565b5b9050919050565b613523838383613696565b600073ffffffffffffffffffffffffffffffffffffffff168373ffffffffffffffffffffffffffffffffffffffff161415613566576135618161369b565b6135a5565b8173ffffffffffffffffffffffffffffffffffffffff168373ffffffffffffffffffffffffffffffffffffffff16146135a4576135a383826136e4565b5b5b600073ffffffffffffffffffffffffffffffffffffffff168273ffffffffffffffffffffffffffffffffffffffff1614156135e8576135e381613851565b613627565b8273ffffffffffffffffffffffffffffffffffffffff168273ffffffffffffffffffffffffffffffffffffffff1614613626576136258282613994565b5b5b505050565b60007f01ffc9a7000000000000000000000000000000000000000000000000000000007bffffffffffffffffffffffffffffffffffffffffffffffffffffffff1916827bffffffffffffffffffffffffffffffffffffffffffffffffffffffff1916149050919050565b505050565b600b80549050600c600083815260200190815260200160002081905550600b81908060018154018082558091505060019003906000526020600020016000909190919091505550565b600060016136f18461116c565b6136fb9190614a31565b90506000600a60008481526020019081526020016000205490508181146137e0576000600960008673ffffffffffffffffffffffffffffffffffffffff1673ffffffffffffffffffffffffffffffffffffffff168152602001908152602001600020600084815260200190815260200160002054905080600960008773ffffffffffffffffffffffffffffffffffffffff1673ffffffffffffffffffffffffffffffffffffffff16815260200190815260200160002060008481526020019081526020016000208190555081600a600083815260200190815260200160002081905550505b600a600084815260200190815260200160002060009055600960008573ffffffffffffffffffffffffffffffffffffffff1673ffffffffffffffffffffffffffffffffffffffff16815260200190815260200160002060008381526020019081526020016000206000905550505050565b60006001600b805490506138659190614a31565b90506000600c60008481526020019081526020016000205490506000600b83815481106138bb577f4e487b7100000000000000000000000000000000000000000000000000000000600052603260045260246000fd5b9060005260206000200154905080600b8381548110613903577f4e487b7100000000000000000000000000000000000000000000000000000000600052603260045260246000fd5b906000526020600020018190555081600c600083815260200190815260200160002081905550600c600085815260200190815260200160002060009055600b805480613978577f4e487b7100000000000000000000000000000000000000000000000000000000600052603160045260246000fd5b6001900381819060005260206000200160009055905550505050565b600061399f8361116c565b905081600960008573ffffffffffffffffffffffffffffffffffffffff1673ffffffffffffffffffffffffffffffffffffffff16815260200190815260200160002060008381526020019081526020016000208190555080600a600084815260200190815260200160002081905550505050565b828054613a1f90614b4f565b90600052602060002090601f016020900481019282613a415760008555613a88565b82601f10613a5a57805160ff1916838001178555613a88565b82800160010185558215613a88579182015b82811115613a87578251825591602001919060010190613a6c565b5b509050613a959190613ad9565b5090565b508054613aa590614b4f565b6000825580601f10613ab75750613ad6565b601f016020900490600052602060002090810190613ad59190613ad9565b5b50565b5b80821115613af2576000816000905550600101613ada565b5090565b6000613b09613b04846148ab565b614886565b905082815260208101848484011115613b2157600080fd5b613b2c848285614ae3565b509392505050565b6000613b47613b42846148dc565b614886565b905082815260208101848484011115613b5f57600080fd5b613b6a848285614ae3565b509392505050565b600081359050613b8181615447565b92915050565b600081359050613b968161545e565b92915050565b600081359050613bab81615475565b92915050565b600081359050613bc08161548c565b92915050565b600081519050613bd58161548c565b92915050565b600082601f830112613bec57600080fd5b8135613bfc848260208601613af6565b91505092915050565b600082601f830112613c1657600080fd5b8135613c26848260208601613b34565b91505092915050565b600081359050613c3e816154a3565b92915050565b600060208284031215613c5657600080fd5b6000613c6484828501613b72565b91505092915050565b60008060408385031215613c8057600080fd5b6000613c8e85828601613b72565b9250506020613c9f85828601613b72565b9150509250929050565b600080600060608486031215613cbe57600080fd5b6000613ccc86828701613b72565b9350506020613cdd86828701613b72565b9250506040613cee86828701613c2f565b9150509250925092565b60008060008060808587031215613d0e57600080fd5b6000613d1c87828801613b72565b9450506020613d2d87828801613b72565b9350506040613d3e87828801613c2f565b925050606085013567ffffffffffffffff811115613d5b57600080fd5b613d6787828801613bdb565b91505092959194509250565b60008060408385031215613d8657600080fd5b6000613d9485828601613b72565b9250506020613da585828601613b87565b9150509250929050565b60008060408385031215613dc257600080fd5b6000613dd085828601613b72565b9250506020613de185828601613c2f565b9150509250929050565b600060208284031215613dfd57600080fd5b6000613e0b84828501613b9c565b91505092915050565b60008060408385031215613e2757600080fd5b6000613e3585828601613b9c565b9250506020613e4685828601613b72565b9150509250929050565b60008060408385031215613e6357600080fd5b6000613e7185828601613b9c565b9250506020613e8285828601613c2f565b9150509250929050565b600060208284031215613e9e57600080fd5b6000613eac84828501613bb1565b91505092915050565b600060208284031215613ec757600080fd5b6000613ed584828501613bc6565b91505092915050565b600060208284031215613ef057600080fd5b6000613efe84828501613c2f565b91505092915050565b60008060408385031215613f1a57600080fd5b6000613f2885828601613c2f565b925050602083013567ffffffffffffffff811115613f4557600080fd5b613f5185828601613c05565b9150509250929050565b613f6481614a65565b82525050565b613f7381614a77565b82525050565b613f8281614a83565b82525050565b6000613f938261490d565b613f9d8185614923565b9350613fad818560208601614af2565b613fb681614ce8565b840191505092915050565b6000613fcc82614918565b613fd68185614934565b9350613fe6818560208601614af2565b613fef81614ce8565b840191505092915050565b600061400582614918565b61400f8185614945565b935061401f818560208601614af2565b80840191505092915050565b6000614038602083614934565b915061404382614cf9565b602082019050919050565b600061405b602b83614934565b915061406682614d22565b604082019050919050565b600061407e601483614934565b915061408982614d71565b602082019050919050565b60006140a1602b83614934565b91506140ac82614d9a565b604082019050919050565b60006140c4603283614934565b91506140cf82614de9565b604082019050919050565b60006140e7601c83614934565b91506140f282614e38565b602082019050919050565b600061410a602483614934565b915061411582614e61565b604082019050919050565b600061412d601983614934565b915061413882614eb0565b602082019050919050565b6000614150602c83614934565b915061415b82614ed9565b604082019050919050565b6000614173602b83614934565b915061417e82614f28565b604082019050919050565b6000614196601083614934565b91506141a182614f77565b602082019050919050565b60006141b9603883614934565b91506141c482614fa0565b604082019050919050565b60006141dc602a83614934565b91506141e782614fef565b604082019050919050565b60006141ff602983614934565b915061420a8261503e565b604082019050919050565b6000614222602e83614934565b915061422d8261508d565b604082019050919050565b6000614245602083614934565b9150614250826150dc565b602082019050919050565b6000614268602183614934565b915061427382615105565b604082019050919050565b600061428b603183614934565b915061429682615154565b604082019050919050565b60006142ae602c83614934565b91506142b9826151a3565b604082019050919050565b60006142d1602083614934565b91506142dc826151f2565b602082019050919050565b60006142f4602983614934565b91506142ff8261521b565b604082019050919050565b6000614317602f83614934565b91506143228261526a565b604082019050919050565b600061433a602183614934565b9150614345826152b9565b604082019050919050565b600061435d603183614934565b915061436882615308565b604082019050919050565b6000614380602c83614934565b915061438b82615357565b604082019050919050565b60006143a3601783614945565b91506143ae826153a6565b601782019050919050565b60006143c6601183614945565b91506143d1826153cf565b601182019050919050565b60006143e9602f83614934565b91506143f4826153f8565b604082019050919050565b61440881614ad9565b82525050565b600061441a8285613ffa565b91506144268284613ffa565b91508190509392505050565b600061443d82614396565b91506144498285613ffa565b9150614454826143b9565b91506144608284613ffa565b91508190509392505050565b60006020820190506144816000830184613f5b565b92915050565b600060808201905061449c6000830187613f5b565b6144a96020830186613f5b565b6144b660408301856143ff565b81810360608301526144c88184613f88565b905095945050505050565b60006020820190506144e86000830184613f6a565b92915050565b60006020820190506145036000830184613f79565b92915050565b600060208201905081810360008301526145238184613fc1565b905092915050565b600060208201905081810360008301526145448161402b565b9050919050565b600060208201905081810360008301526145648161404e565b9050919050565b6000602082019050818103600083015261458481614071565b9050919050565b600060208201905081810360008301526145a481614094565b9050919050565b600060208201905081810360008301526145c4816140b7565b9050919050565b600060208201905081810360008301526145e4816140da565b9050919050565b60006020820190508181036000830152614604816140fd565b9050919050565b6000602082019050818103600083015261462481614120565b9050919050565b6000602082019050818103600083015261464481614143565b9050919050565b6000602082019050818103600083015261466481614166565b9050919050565b6000602082019050818103600083015261468481614189565b9050919050565b600060208201905081810360008301526146a4816141ac565b9050919050565b600060208201905081810360008301526146c4816141cf565b9050919050565b600060208201905081810360008301526146e4816141f2565b9050919050565b6000602082019050818103600083015261470481614215565b9050919050565b6000602082019050818103600083015261472481614238565b9050919050565b600060208201905081810360008301526147448161425b565b9050919050565b600060208201905081810360008301526147648161427e565b9050919050565b60006020820190508181036000830152614784816142a1565b9050919050565b600060208201905081810360008301526147a4816142c4565b9050919050565b600060208201905081810360008301526147c4816142e7565b9050919050565b600060208201905081810360008301526147e48161430a565b9050919050565b600060208201905081810360008301526148048161432d565b9050919050565b6000602082019050818103600083015261482481614350565b9050919050565b6000602082019050818103600083015261484481614373565b9050919050565b60006020820190508181036000830152614864816143dc565b9050919050565b600060208201905061488060008301846143ff565b92915050565b60006148906148a1565b905061489c8282614b81565b919050565b6000604051905090565b600067ffffffffffffffff8211156148c6576148c5614cb9565b5b6148cf82614ce8565b9050602081019050919050565b600067ffffffffffffffff8211156148f7576148f6614cb9565b5b61490082614ce8565b9050602081019050919050565b600081519050919050565b600081519050919050565b600082825260208201905092915050565b600082825260208201905092915050565b600081905092915050565b600061495b82614ad9565b915061496683614ad9565b9250827fffffffffffffffffffffffffffffffffffffffffffffffffffffffffffffffff0382111561499b5761499a614c2c565b5b828201905092915050565b60006149b182614ad9565b91506149bc83614ad9565b9250826149cc576149cb614c5b565b5b828204905092915050565b60006149e282614ad9565b91506149ed83614ad9565b9250817fffffffffffffffffffffffffffffffffffffffffffffffffffffffffffffffff0483118215151615614a2657614a25614c2c565b5b828202905092915050565b6000614a3c82614ad9565b9150614a4783614ad9565b925082821015614a5a57614a59614c2c565b5b828203905092915050565b6000614a7082614ab9565b9050919050565b60008115159050919050565b6000819050919050565b60007fffffffff0000000000000000000000000000000000000000000000000000000082169050919050565b600073ffffffffffffffffffffffffffffffffffffffff82169050919050565b6000819050919050565b82818337600083830152505050565b60005b83811015614b10578082015181840152602081019050614af5565b83811115614b1f576000848401525b50505050565b6000614b3082614ad9565b91506000821415614b4457614b43614c2c565b5b600182039050919050565b60006002820490506001821680614b6757607f821691505b60208210811415614b7b57614b7a614c8a565b5b50919050565b614b8a82614ce8565b810181811067ffffffffffffffff82111715614ba957614ba8614cb9565b5b80604052505050565b6000614bbd82614ad9565b91507fffffffffffffffffffffffffffffffffffffffffffffffffffffffffffffffff821415614bf057614bef614c2c565b5b600182019050919050565b6000614c0682614ad9565b9150614c1183614ad9565b925082614c2157614c20614c5b565b5b828206905092915050565b7f4e487b7100000000000000000000000000000000000000000000000000000000600052601160045260246000fd5b7f4e487b7100000000000000000000000000000000000000000000000000000000600052601260045260246000fd5b7f4e487b7100000000000000000000000000000000000000000000000000000000600052602260045260246000fd5b7f4e487b7100000000000000000000000000000000000000000000000000000000600052604160045260246000fd5b6000601f19601f8301169050919050565b7f537472696e67733a20686578206c656e67746820696e73756666696369656e74600082015250565b7f4552433732315061757361626c653a20746f6b656e207472616e73666572207760008201527f68696c6520706175736564000000000000000000000000000000000000000000602082015250565b7f5061757361626c653a206e6f7420706175736564000000000000000000000000600082015250565b7f455243373231456e756d657261626c653a206f776e657220696e646578206f7560008201527f74206f6620626f756e6473000000000000000000000000000000000000000000602082015250565b7f4552433732313a207472616e7366657220746f206e6f6e20455243373231526560008201527f63656976657220696d706c656d656e7465720000000000000000000000000000602082015250565b7f4552433732313a20746f6b656e20616c7265616479206d696e74656400000000600082015250565b7f4552433732313a207472616e7366657220746f20746865207a65726f2061646460008201527f7265737300000000000000000000000000000000000000000000000000000000602082015250565b7f4552433732313a20617070726f766520746f2063616c6c657200000000000000600082015250565b7f4552433732313a206f70657261746f7220717565727920666f72206e6f6e657860008201527f697374656e7420746f6b656e0000000000000000000000000000000000000000602082015250565b7f4865617679537569743a2063616c6c6572206973206e6f74206f776e6572206e60008201527f6f7220617070726f766564000000000000000000000000000000000000000000602082015250565b7f5061757361626c653a2070617573656400000000000000000000000000000000600082015250565b7f4552433732313a20617070726f76652063616c6c6572206973206e6f74206f7760008201527f6e6572206e6f7220617070726f76656420666f7220616c6c0000000000000000602082015250565b7f4552433732313a2062616c616e636520717565727920666f7220746865207a6560008201527f726f206164647265737300000000000000000000000000000000000000000000602082015250565b7f4552433732313a206f776e657220717565727920666f72206e6f6e657869737460008201527f656e7420746f6b656e0000000000000000000000000000000000000000000000602082015250565b7f45524337323155524953746f726167653a2055524920736574206f66206e6f6e60008201527f6578697374656e7420746f6b656e000000000000000000000000000000000000602082015250565b7f4552433732313a206d696e7420746f20746865207a65726f2061646472657373600082015250565b7f4865617679537569743a20696e73756666696369656e74206f7264657220666560008201527f6500000000000000000000000000000000000000000000000000000000000000602082015250565b7f45524337323155524953746f726167653a2055524920717565727920666f722060008201527f6e6f6e6578697374656e7420746f6b656e000000000000000000000000000000602082015250565b7f4552433732313a20617070726f76656420717565727920666f72206e6f6e657860008201527f697374656e7420746f6b656e0000000000000000000000000000000000000000602082015250565b7f4865617679537569743a20696e73756666696369656e74206465706f73697473600082015250565b7f4552433732313a207472616e73666572206f6620746f6b656e2074686174206960008201527f73206e6f74206f776e0000000000000000000000000000000000000000000000602082015250565b7f4552433732314d657461646174613a2055524920717565727920666f72206e6f60008201527f6e6578697374656e7420746f6b656e0000000000000000000000000000000000602082015250565b7f4552433732313a20617070726f76616c20746f2063757272656e74206f776e6560008201527f7200000000000000000000000000000000000000000000000000000000000000602082015250565b7f4552433732313a207472616e736665722063616c6c6572206973206e6f74206f60008201527f776e6572206e6f7220617070726f766564000000000000000000000000000000602082015250565b7f455243373231456e756d657261626c653a20676c6f62616c20696e646578206f60008201527f7574206f6620626f756e64730000000000000000000000000000000000000000602082015250565b7f416363657373436f6e74726f6c3a206163636f756e7420000000000000000000600082015250565b7f206973206d697373696e6720726f6c6520000000000000000000000000000000600082015250565b7f416363657373436f6e74726f6c3a2063616e206f6e6c792072656e6f756e636560008201527f20726f6c657320666f722073656c660000000000000000000000000000000000602082015250565b61545081614a65565b811461545b57600080fd5b50565b61546781614a77565b811461547257600080fd5b50565b61547e81614a83565b811461548957600080fd5b50565b61549581614a8d565b81146154a057600080fd5b50565b6154ac81614ad9565b81146154b757600080fd5b5056fea264697066735822122003669cf9940ac3b6ea5ac0bb71676660e3993d24b75487c573ebf93fa6dc4d5664736f6c63430008040033",
  "linkReferences": {},
  "deployedLinkReferences": {}
}